{"contracts/Marketplace.sol":{"Marketplace":{"abi":[{"inputs":[{"internalType":"uint256","name":"_feePercent","type":"uint256"}],"stateMutability":"nonpayable","type":"constructor"},{"anonymous":false,"inputs":[{"indexed":false,"internalType":"uint256","name":"itemId","type":"uint256"},{"indexed":true,"internalType":"address","name":"nft","type":"address"},{"indexed":false,"internalType":"uint256","name":"tokenId","type":"uint256"},{"indexed":false,"internalType":"uint256","name":"price","type":"uint256"},{"indexed":true,"internalType":"address","name":"seller","type":"address"},{"indexed":true,"internalType":"address","name":"buyer","type":"address"}],"name":"Bought","type":"event"},{"anonymous":false,"inputs":[{"indexed":false,"internalType":"uint256","name":"itemId","type":"uint256"},{"indexed":true,"internalType":"address","name":"nft","type":"address"},{"indexed":false,"internalType":"uint256","name":"tokenId","type":"uint256"},{"indexed":false,"internalType":"uint256","name":"price","type":"uint256"},{"indexed":true,"internalType":"address","name":"seller","type":"address"}],"name":"offered","type":"event"},{"inputs":[],"name":"feeAccount","outputs":[{"internalType":"address payable","name":"","type":"address"}],"stateMutability":"view","type":"function"},{"inputs":[],"name":"feePercent","outputs":[{"internalType":"uint256","name":"","type":"uint256"}],"stateMutability":"view","type":"function"},{"inputs":[{"internalType":"uint256","name":"itemId","type":"uint256"}],"name":"getTotalPrice","outputs":[{"internalType":"uint256","name":"","type":"uint256"}],"stateMutability":"view","type":"function"},{"inputs":[],"name":"itemCount","outputs":[{"internalType":"uint256","name":"","type":"uint256"}],"stateMutability":"view","type":"function"},{"inputs":[{"internalType":"uint256","name":"","type":"uint256"}],"name":"items","outputs":[{"internalType":"uint256","name":"itemId","type":"uint256"},{"internalType":"contract IERC721","name":"nft","type":"address"},{"internalType":"uint256","name":"tokenId","type":"uint256"},{"internalType":"uint256","name":"price","type":"uint256"},{"internalType":"address payable","name":"seller","type":"address"},{"internalType":"bool","name":"sold","type":"bool"}],"stateMutability":"view","type":"function"},{"inputs":[{"internalType":"contract IERC721","name":"_nft","type":"address"},{"internalType":"uint256","name":"_tokenId","type":"uint256"},{"internalType":"uint256","name":"_price","type":"uint256"}],"name":"makeItem","outputs":[],"stateMutability":"nonpayable","type":"function"},{"inputs":[{"internalType":"uint256","name":"_itemId","type":"uint256"}],"name":"purchaseItem","outputs":[],"stateMutability":"payable","type":"function"}],"evm":{"bytecode":{"linkReferences":{},"object":"60c060405234801561001057600080fd5b50604051620011aa380380620011aa833981810160405281019061003491906100b9565b60016000819055503373ffffffffffffffffffffffffffffffffffffffff1660808173ffffffffffffffffffffffffffffffffffffffff16815250508060a08181525050506100e6565b600080fd5b6000819050919050565b61009681610083565b81146100a157600080fd5b50565b6000815190506100b38161008d565b92915050565b6000602082840312156100cf576100ce61007e565b5b60006100dd848285016100a4565b91505092915050565b60805160a0516110906200011a600039600081816101e601526102970152600081816101bc015261047701526110906000f3fe6080604052600436106100705760003560e01c8063bfb231d21161004e578063bfb231d2146100f6578063ca7dd37514610138578063d38ea5bf14610175578063fa00afc71461019157610070565b806365e17c9d146100755780636bfb0d01146100a05780637fd6f15c146100cb575b600080fd5b34801561008157600080fd5b5061008a6101ba565b60405161009791906109a3565b60405180910390f35b3480156100ac57600080fd5b506100b56101de565b6040516100c291906109d7565b60405180910390f35b3480156100d757600080fd5b506100e06101e4565b6040516100ed91906109d7565b60405180910390f35b34801561010257600080fd5b5061011d60048036038101906101189190610a23565b610208565b60405161012f96959493929190610aca565b60405180910390f35b34801561014457600080fd5b5061015f600480360381019061015a9190610a23565b610291565b60405161016c91906109d7565b60405180910390f35b61018f600480360381019061018a9190610a23565b6102f4565b005b34801561019d57600080fd5b506101b860048036038101906101b39190610b7b565b61067c565b005b7f000000000000000000000000000000000000000000000000000000000000000081565b60015481565b7f000000000000000000000000000000000000000000000000000000000000000081565b60026020528060005260406000206000915090508060000154908060010160009054906101000a900473ffffffffffffffffffffffffffffffffffffffff16908060020154908060030154908060040160009054906101000a900473ffffffffffffffffffffffffffffffffffffffff16908060040160149054906101000a900460ff16905086565b600060647f000000000000000000000000000000000000000000000000000000000000000060646102c29190610bfd565b60026000858152602001908152602001600020600301546102e39190610c53565b6102ed9190610cdc565b9050919050565b6102fc610908565b600061030782610291565b9050600060026000848152602001908152602001600020905060008311801561033257506001548311155b610371576040517f08c379a000000000000000000000000000000000000000000000000000000000815260040161036890610d6a565b60405180910390fd5b813410156103b4576040517f08c379a00000000000000000000000000000000000000000000000000000000081526004016103ab90610dfc565b60405180910390fd5b8060040160149054906101000a900460ff1615610406576040517f08c379a00000000000000000000000000000000000000000000000000000000081526004016103fd90610e68565b60405180910390fd5b8060040160009054906101000a900473ffffffffffffffffffffffffffffffffffffffff1673ffffffffffffffffffffffffffffffffffffffff166108fc82600301549081150290604051600060405180830381858888f19350505050158015610474573d6000803e3d6000fd5b507f000000000000000000000000000000000000000000000000000000000000000073ffffffffffffffffffffffffffffffffffffffff166108fc8260030154846104bf9190610e88565b9081150290604051600060405180830381858888f193505050501580156104ea573d6000803e3d6000fd5b5060018160040160146101000a81548160ff0219169083151502179055508060010160009054906101000a900473ffffffffffffffffffffffffffffffffffffffff1673ffffffffffffffffffffffffffffffffffffffff166323b872dd303384600201546040518463ffffffff1660e01b815260040161056d93929190610ecb565b600060405180830381600087803b15801561058757600080fd5b505af115801561059b573d6000803e3d6000fd5b505050503373ffffffffffffffffffffffffffffffffffffffff168160040160009054906101000a900473ffffffffffffffffffffffffffffffffffffffff1673ffffffffffffffffffffffffffffffffffffffff168260010160009054906101000a900473ffffffffffffffffffffffffffffffffffffffff1673ffffffffffffffffffffffffffffffffffffffff167f8b4c9c8a607d67b321582dd8461041b1dc2ceeca70c8b7f37f8e02095cf2e76d868560020154866003015460405161066793929190610f02565b60405180910390a45050610679610958565b50565b610684610908565b600081116106c7576040517f08c379a00000000000000000000000000000000000000000000000000000000081526004016106be90610f85565b60405180910390fd5b600160008154809291906106da90610fa5565b91905055508273ffffffffffffffffffffffffffffffffffffffff166323b872dd3330856040518463ffffffff1660e01b815260040161071c93929190610ecb565b600060405180830381600087803b15801561073657600080fd5b505af115801561074a573d6000803e3d6000fd5b505050506040518060c0016040528060015481526020018473ffffffffffffffffffffffffffffffffffffffff1681526020018381526020018281526020013373ffffffffffffffffffffffffffffffffffffffff168152602001600015158152506002600060015481526020019081526020016000206000820151816000015560208201518160010160006101000a81548173ffffffffffffffffffffffffffffffffffffffff021916908373ffffffffffffffffffffffffffffffffffffffff160217905550604082015181600201556060820151816003015560808201518160040160006101000a81548173ffffffffffffffffffffffffffffffffffffffff021916908373ffffffffffffffffffffffffffffffffffffffff16021790555060a08201518160040160146101000a81548160ff0219169083151502179055509050503373ffffffffffffffffffffffffffffffffffffffff168373ffffffffffffffffffffffffffffffffffffffff167fdbac4bb85b8f64732592b4091517366a78dcf20ef7bbad3443eb8bcda4bd9d3d60015485856040516108f393929190610f02565b60405180910390a3610903610958565b505050565b6002600054141561094e576040517f08c379a00000000000000000000000000000000000000000000000000000000081526004016109459061103a565b60405180910390fd5b6002600081905550565b6001600081905550565b600073ffffffffffffffffffffffffffffffffffffffff82169050919050565b600061098d82610962565b9050919050565b61099d81610982565b82525050565b60006020820190506109b86000830184610994565b92915050565b6000819050919050565b6109d1816109be565b82525050565b60006020820190506109ec60008301846109c8565b92915050565b600080fd5b610a00816109be565b8114610a0b57600080fd5b50565b600081359050610a1d816109f7565b92915050565b600060208284031215610a3957610a386109f2565b5b6000610a4784828501610a0e565b91505092915050565b6000819050919050565b6000610a75610a70610a6b84610962565b610a50565b610962565b9050919050565b6000610a8782610a5a565b9050919050565b6000610a9982610a7c565b9050919050565b610aa981610a8e565b82525050565b60008115159050919050565b610ac481610aaf565b82525050565b600060c082019050610adf60008301896109c8565b610aec6020830188610aa0565b610af960408301876109c8565b610b0660608301866109c8565b610b136080830185610994565b610b2060a0830184610abb565b979650505050505050565b6000610b3682610962565b9050919050565b6000610b4882610b2b565b9050919050565b610b5881610b3d565b8114610b6357600080fd5b50565b600081359050610b7581610b4f565b92915050565b600080600060608486031215610b9457610b936109f2565b5b6000610ba286828701610b66565b9350506020610bb386828701610a0e565b9250506040610bc486828701610a0e565b9150509250925092565b7f4e487b7100000000000000000000000000000000000000000000000000000000600052601160045260246000fd5b6000610c08826109be565b9150610c13836109be565b9250827fffffffffffffffffffffffffffffffffffffffffffffffffffffffffffffffff03821115610c4857610c47610bce565b5b828201905092915050565b6000610c5e826109be565b9150610c69836109be565b9250817fffffffffffffffffffffffffffffffffffffffffffffffffffffffffffffffff0483118215151615610ca257610ca1610bce565b5b828202905092915050565b7f4e487b7100000000000000000000000000000000000000000000000000000000600052601260045260246000fd5b6000610ce7826109be565b9150610cf2836109be565b925082610d0257610d01610cad565b5b828204905092915050565b600082825260208201905092915050565b7f4974656d20446f6573204e6f7420457869737400000000000000000000000000600082015250565b6000610d54601383610d0d565b9150610d5f82610d1e565b602082019050919050565b60006020820190508181036000830152610d8381610d47565b9050919050565b7f4e6f7420656e6f75676820457468657220746f2070757263686173652069746560008201527f6d20616e64207061792066656500000000000000000000000000000000000000602082015250565b6000610de6602d83610d0d565b9150610df182610d8a565b604082019050919050565b60006020820190508181036000830152610e1581610dd9565b9050919050565b7f6974656d20616c726561647920536f6c64000000000000000000000000000000600082015250565b6000610e52601183610d0d565b9150610e5d82610e1c565b602082019050919050565b60006020820190508181036000830152610e8181610e45565b9050919050565b6000610e93826109be565b9150610e9e836109be565b925082821015610eb157610eb0610bce565b5b828203905092915050565b610ec581610b2b565b82525050565b6000606082019050610ee06000830186610ebc565b610eed6020830185610ebc565b610efa60408301846109c8565b949350505050565b6000606082019050610f1760008301866109c8565b610f2460208301856109c8565b610f3160408301846109c8565b949350505050565b7f7072696365206d7573742062652067726561746572207468656e207a65726f00600082015250565b6000610f6f601f83610d0d565b9150610f7a82610f39565b602082019050919050565b60006020820190508181036000830152610f9e81610f62565b9050919050565b6000610fb0826109be565b91507fffffffffffffffffffffffffffffffffffffffffffffffffffffffffffffffff821415610fe357610fe2610bce565b5b600182019050919050565b7f5265656e7472616e637947756172643a207265656e7472616e742063616c6c00600082015250565b6000611024601f83610d0d565b915061102f82610fee565b602082019050919050565b6000602082019050818103600083015261105381611017565b905091905056fea26469706673582212200be968595fdb520208eb06617b6751d6ba4233a903d0e6ba9eddabf99d78611e64736f6c63430008090033","opcodes":"PUSH1 0xC0 PUSH1 0x40 MSTORE CALLVALUE DUP1 ISZERO PUSH2 0x10 JUMPI PUSH1 0x0 DUP1 REVERT JUMPDEST POP PUSH1 0x40 MLOAD PUSH3 0x11AA CODESIZE SUB DUP1 PUSH3 0x11AA DUP4 CODECOPY DUP2 DUP2 ADD PUSH1 0x40 MSTORE DUP2 ADD SWAP1 PUSH2 0x34 SWAP2 SWAP1 PUSH2 0xB9 JUMP JUMPDEST PUSH1 0x1 PUSH1 0x0 DUP2 SWAP1 SSTORE POP CALLER PUSH20 0xFFFFFFFFFFFFFFFFFFFFFFFFFFFFFFFFFFFFFFFF AND PUSH1 0x80 DUP2 PUSH20 0xFFFFFFFFFFFFFFFFFFFFFFFFFFFFFFFFFFFFFFFF AND DUP2 MSTORE POP POP DUP1 PUSH1 0xA0 DUP2 DUP2 MSTORE POP POP POP PUSH2 0xE6 JUMP JUMPDEST PUSH1 0x0 DUP1 REVERT JUMPDEST PUSH1 0x0 DUP2 SWAP1 POP SWAP2 SWAP1 POP JUMP JUMPDEST PUSH2 0x96 DUP2 PUSH2 0x83 JUMP JUMPDEST DUP2 EQ PUSH2 0xA1 JUMPI PUSH1 0x0 DUP1 REVERT JUMPDEST POP JUMP JUMPDEST PUSH1 0x0 DUP2 MLOAD SWAP1 POP PUSH2 0xB3 DUP2 PUSH2 0x8D JUMP JUMPDEST SWAP3 SWAP2 POP POP JUMP JUMPDEST PUSH1 0x0 PUSH1 0x20 DUP3 DUP5 SUB SLT ISZERO PUSH2 0xCF JUMPI PUSH2 0xCE PUSH2 0x7E JUMP JUMPDEST JUMPDEST PUSH1 0x0 PUSH2 0xDD DUP5 DUP3 DUP6 ADD PUSH2 0xA4 JUMP JUMPDEST SWAP2 POP POP SWAP3 SWAP2 POP POP JUMP JUMPDEST PUSH1 0x80 MLOAD PUSH1 0xA0 MLOAD PUSH2 0x1090 PUSH3 0x11A PUSH1 0x0 CODECOPY PUSH1 0x0 DUP2 DUP2 PUSH2 0x1E6 ADD MSTORE PUSH2 0x297 ADD MSTORE PUSH1 0x0 DUP2 DUP2 PUSH2 0x1BC ADD MSTORE PUSH2 0x477 ADD MSTORE PUSH2 0x1090 PUSH1 0x0 RETURN INVALID PUSH1 0x80 PUSH1 0x40 MSTORE PUSH1 0x4 CALLDATASIZE LT PUSH2 0x70 JUMPI PUSH1 0x0 CALLDATALOAD PUSH1 0xE0 SHR DUP1 PUSH4 0xBFB231D2 GT PUSH2 0x4E JUMPI DUP1 PUSH4 0xBFB231D2 EQ PUSH2 0xF6 JUMPI DUP1 PUSH4 0xCA7DD375 EQ PUSH2 0x138 JUMPI DUP1 PUSH4 0xD38EA5BF EQ PUSH2 0x175 JUMPI DUP1 PUSH4 0xFA00AFC7 EQ PUSH2 0x191 JUMPI PUSH2 0x70 JUMP JUMPDEST DUP1 PUSH4 0x65E17C9D EQ PUSH2 0x75 JUMPI DUP1 PUSH4 0x6BFB0D01 EQ PUSH2 0xA0 JUMPI DUP1 PUSH4 0x7FD6F15C EQ PUSH2 0xCB JUMPI JUMPDEST PUSH1 0x0 DUP1 REVERT JUMPDEST CALLVALUE DUP1 ISZERO PUSH2 0x81 JUMPI PUSH1 0x0 DUP1 REVERT JUMPDEST POP PUSH2 0x8A PUSH2 0x1BA JUMP JUMPDEST PUSH1 0x40 MLOAD PUSH2 0x97 SWAP2 SWAP1 PUSH2 0x9A3 JUMP JUMPDEST PUSH1 0x40 MLOAD DUP1 SWAP2 SUB SWAP1 RETURN JUMPDEST CALLVALUE DUP1 ISZERO PUSH2 0xAC JUMPI PUSH1 0x0 DUP1 REVERT JUMPDEST POP PUSH2 0xB5 PUSH2 0x1DE JUMP JUMPDEST PUSH1 0x40 MLOAD PUSH2 0xC2 SWAP2 SWAP1 PUSH2 0x9D7 JUMP JUMPDEST PUSH1 0x40 MLOAD DUP1 SWAP2 SUB SWAP1 RETURN JUMPDEST CALLVALUE DUP1 ISZERO PUSH2 0xD7 JUMPI PUSH1 0x0 DUP1 REVERT JUMPDEST POP PUSH2 0xE0 PUSH2 0x1E4 JUMP JUMPDEST PUSH1 0x40 MLOAD PUSH2 0xED SWAP2 SWAP1 PUSH2 0x9D7 JUMP JUMPDEST PUSH1 0x40 MLOAD DUP1 SWAP2 SUB SWAP1 RETURN JUMPDEST CALLVALUE DUP1 ISZERO PUSH2 0x102 JUMPI PUSH1 0x0 DUP1 REVERT JUMPDEST POP PUSH2 0x11D PUSH1 0x4 DUP1 CALLDATASIZE SUB DUP2 ADD SWAP1 PUSH2 0x118 SWAP2 SWAP1 PUSH2 0xA23 JUMP JUMPDEST PUSH2 0x208 JUMP JUMPDEST PUSH1 0x40 MLOAD PUSH2 0x12F SWAP7 SWAP6 SWAP5 SWAP4 SWAP3 SWAP2 SWAP1 PUSH2 0xACA JUMP JUMPDEST PUSH1 0x40 MLOAD DUP1 SWAP2 SUB SWAP1 RETURN JUMPDEST CALLVALUE DUP1 ISZERO PUSH2 0x144 JUMPI PUSH1 0x0 DUP1 REVERT JUMPDEST POP PUSH2 0x15F PUSH1 0x4 DUP1 CALLDATASIZE SUB DUP2 ADD SWAP1 PUSH2 0x15A SWAP2 SWAP1 PUSH2 0xA23 JUMP JUMPDEST PUSH2 0x291 JUMP JUMPDEST PUSH1 0x40 MLOAD PUSH2 0x16C SWAP2 SWAP1 PUSH2 0x9D7 JUMP JUMPDEST PUSH1 0x40 MLOAD DUP1 SWAP2 SUB SWAP1 RETURN JUMPDEST PUSH2 0x18F PUSH1 0x4 DUP1 CALLDATASIZE SUB DUP2 ADD SWAP1 PUSH2 0x18A SWAP2 SWAP1 PUSH2 0xA23 JUMP JUMPDEST PUSH2 0x2F4 JUMP JUMPDEST STOP JUMPDEST CALLVALUE DUP1 ISZERO PUSH2 0x19D JUMPI PUSH1 0x0 DUP1 REVERT JUMPDEST POP PUSH2 0x1B8 PUSH1 0x4 DUP1 CALLDATASIZE SUB DUP2 ADD SWAP1 PUSH2 0x1B3 SWAP2 SWAP1 PUSH2 0xB7B JUMP JUMPDEST PUSH2 0x67C JUMP JUMPDEST STOP JUMPDEST PUSH32 0x0 DUP2 JUMP JUMPDEST PUSH1 0x1 SLOAD DUP2 JUMP JUMPDEST PUSH32 0x0 DUP2 JUMP JUMPDEST PUSH1 0x2 PUSH1 0x20 MSTORE DUP1 PUSH1 0x0 MSTORE PUSH1 0x40 PUSH1 0x0 KECCAK256 PUSH1 0x0 SWAP2 POP SWAP1 POP DUP1 PUSH1 0x0 ADD SLOAD SWAP1 DUP1 PUSH1 0x1 ADD PUSH1 0x0 SWAP1 SLOAD SWAP1 PUSH2 0x100 EXP SWAP1 DIV PUSH20 0xFFFFFFFFFFFFFFFFFFFFFFFFFFFFFFFFFFFFFFFF AND SWAP1 DUP1 PUSH1 0x2 ADD SLOAD SWAP1 DUP1 PUSH1 0x3 ADD SLOAD SWAP1 DUP1 PUSH1 0x4 ADD PUSH1 0x0 SWAP1 SLOAD SWAP1 PUSH2 0x100 EXP SWAP1 DIV PUSH20 0xFFFFFFFFFFFFFFFFFFFFFFFFFFFFFFFFFFFFFFFF AND SWAP1 DUP1 PUSH1 0x4 ADD PUSH1 0x14 SWAP1 SLOAD SWAP1 PUSH2 0x100 EXP SWAP1 DIV PUSH1 0xFF AND SWAP1 POP DUP7 JUMP JUMPDEST PUSH1 0x0 PUSH1 0x64 PUSH32 0x0 PUSH1 0x64 PUSH2 0x2C2 SWAP2 SWAP1 PUSH2 0xBFD JUMP JUMPDEST PUSH1 0x2 PUSH1 0x0 DUP6 DUP2 MSTORE PUSH1 0x20 ADD SWAP1 DUP2 MSTORE PUSH1 0x20 ADD PUSH1 0x0 KECCAK256 PUSH1 0x3 ADD SLOAD PUSH2 0x2E3 SWAP2 SWAP1 PUSH2 0xC53 JUMP JUMPDEST PUSH2 0x2ED SWAP2 SWAP1 PUSH2 0xCDC JUMP JUMPDEST SWAP1 POP SWAP2 SWAP1 POP JUMP JUMPDEST PUSH2 0x2FC PUSH2 0x908 JUMP JUMPDEST PUSH1 0x0 PUSH2 0x307 DUP3 PUSH2 0x291 JUMP JUMPDEST SWAP1 POP PUSH1 0x0 PUSH1 0x2 PUSH1 0x0 DUP5 DUP2 MSTORE PUSH1 0x20 ADD SWAP1 DUP2 MSTORE PUSH1 0x20 ADD PUSH1 0x0 KECCAK256 SWAP1 POP PUSH1 0x0 DUP4 GT DUP1 ISZERO PUSH2 0x332 JUMPI POP PUSH1 0x1 SLOAD DUP4 GT ISZERO JUMPDEST PUSH2 0x371 JUMPI PUSH1 0x40 MLOAD PUSH32 0x8C379A000000000000000000000000000000000000000000000000000000000 DUP2 MSTORE PUSH1 0x4 ADD PUSH2 0x368 SWAP1 PUSH2 0xD6A JUMP JUMPDEST PUSH1 0x40 MLOAD DUP1 SWAP2 SUB SWAP1 REVERT JUMPDEST DUP2 CALLVALUE LT ISZERO PUSH2 0x3B4 JUMPI PUSH1 0x40 MLOAD PUSH32 0x8C379A000000000000000000000000000000000000000000000000000000000 DUP2 MSTORE PUSH1 0x4 ADD PUSH2 0x3AB SWAP1 PUSH2 0xDFC JUMP JUMPDEST PUSH1 0x40 MLOAD DUP1 SWAP2 SUB SWAP1 REVERT JUMPDEST DUP1 PUSH1 0x4 ADD PUSH1 0x14 SWAP1 SLOAD SWAP1 PUSH2 0x100 EXP SWAP1 DIV PUSH1 0xFF AND ISZERO PUSH2 0x406 JUMPI PUSH1 0x40 MLOAD PUSH32 0x8C379A000000000000000000000000000000000000000000000000000000000 DUP2 MSTORE PUSH1 0x4 ADD PUSH2 0x3FD SWAP1 PUSH2 0xE68 JUMP JUMPDEST PUSH1 0x40 MLOAD DUP1 SWAP2 SUB SWAP1 REVERT JUMPDEST DUP1 PUSH1 0x4 ADD PUSH1 0x0 SWAP1 SLOAD SWAP1 PUSH2 0x100 EXP SWAP1 DIV PUSH20 0xFFFFFFFFFFFFFFFFFFFFFFFFFFFFFFFFFFFFFFFF AND PUSH20 0xFFFFFFFFFFFFFFFFFFFFFFFFFFFFFFFFFFFFFFFF AND PUSH2 0x8FC DUP3 PUSH1 0x3 ADD SLOAD SWAP1 DUP2 ISZERO MUL SWAP1 PUSH1 0x40 MLOAD PUSH1 0x0 PUSH1 0x40 MLOAD DUP1 DUP4 SUB DUP2 DUP6 DUP9 DUP9 CALL SWAP4 POP POP POP POP ISZERO DUP1 ISZERO PUSH2 0x474 JUMPI RETURNDATASIZE PUSH1 0x0 DUP1 RETURNDATACOPY RETURNDATASIZE PUSH1 0x0 REVERT JUMPDEST POP PUSH32 0x0 PUSH20 0xFFFFFFFFFFFFFFFFFFFFFFFFFFFFFFFFFFFFFFFF AND PUSH2 0x8FC DUP3 PUSH1 0x3 ADD SLOAD DUP5 PUSH2 0x4BF SWAP2 SWAP1 PUSH2 0xE88 JUMP JUMPDEST SWAP1 DUP2 ISZERO MUL SWAP1 PUSH1 0x40 MLOAD PUSH1 0x0 PUSH1 0x40 MLOAD DUP1 DUP4 SUB DUP2 DUP6 DUP9 DUP9 CALL SWAP4 POP POP POP POP ISZERO DUP1 ISZERO PUSH2 0x4EA JUMPI RETURNDATASIZE PUSH1 0x0 DUP1 RETURNDATACOPY RETURNDATASIZE PUSH1 0x0 REVERT JUMPDEST POP PUSH1 0x1 DUP2 PUSH1 0x4 ADD PUSH1 0x14 PUSH2 0x100 EXP DUP2 SLOAD DUP2 PUSH1 0xFF MUL NOT AND SWAP1 DUP4 ISZERO ISZERO MUL OR SWAP1 SSTORE POP DUP1 PUSH1 0x1 ADD PUSH1 0x0 SWAP1 SLOAD SWAP1 PUSH2 0x100 EXP SWAP1 DIV PUSH20 0xFFFFFFFFFFFFFFFFFFFFFFFFFFFFFFFFFFFFFFFF AND PUSH20 0xFFFFFFFFFFFFFFFFFFFFFFFFFFFFFFFFFFFFFFFF AND PUSH4 0x23B872DD ADDRESS CALLER DUP5 PUSH1 0x2 ADD SLOAD PUSH1 0x40 MLOAD DUP5 PUSH4 0xFFFFFFFF AND PUSH1 0xE0 SHL DUP2 MSTORE PUSH1 0x4 ADD PUSH2 0x56D SWAP4 SWAP3 SWAP2 SWAP1 PUSH2 0xECB JUMP JUMPDEST PUSH1 0x0 PUSH1 0x40 MLOAD DUP1 DUP4 SUB DUP2 PUSH1 0x0 DUP8 DUP1 EXTCODESIZE ISZERO DUP1 ISZERO PUSH2 0x587 JUMPI PUSH1 0x0 DUP1 REVERT JUMPDEST POP GAS CALL ISZERO DUP1 ISZERO PUSH2 0x59B JUMPI RETURNDATASIZE PUSH1 0x0 DUP1 RETURNDATACOPY RETURNDATASIZE PUSH1 0x0 REVERT JUMPDEST POP POP POP POP CALLER PUSH20 0xFFFFFFFFFFFFFFFFFFFFFFFFFFFFFFFFFFFFFFFF AND DUP2 PUSH1 0x4 ADD PUSH1 0x0 SWAP1 SLOAD SWAP1 PUSH2 0x100 EXP SWAP1 DIV PUSH20 0xFFFFFFFFFFFFFFFFFFFFFFFFFFFFFFFFFFFFFFFF AND PUSH20 0xFFFFFFFFFFFFFFFFFFFFFFFFFFFFFFFFFFFFFFFF AND DUP3 PUSH1 0x1 ADD PUSH1 0x0 SWAP1 SLOAD SWAP1 PUSH2 0x100 EXP SWAP1 DIV PUSH20 0xFFFFFFFFFFFFFFFFFFFFFFFFFFFFFFFFFFFFFFFF AND PUSH20 0xFFFFFFFFFFFFFFFFFFFFFFFFFFFFFFFFFFFFFFFF AND PUSH32 0x8B4C9C8A607D67B321582DD8461041B1DC2CEECA70C8B7F37F8E02095CF2E76D DUP7 DUP6 PUSH1 0x2 ADD SLOAD DUP7 PUSH1 0x3 ADD SLOAD PUSH1 0x40 MLOAD PUSH2 0x667 SWAP4 SWAP3 SWAP2 SWAP1 PUSH2 0xF02 JUMP JUMPDEST PUSH1 0x40 MLOAD DUP1 SWAP2 SUB SWAP1 LOG4 POP POP PUSH2 0x679 PUSH2 0x958 JUMP JUMPDEST POP JUMP JUMPDEST PUSH2 0x684 PUSH2 0x908 JUMP JUMPDEST PUSH1 0x0 DUP2 GT PUSH2 0x6C7 JUMPI PUSH1 0x40 MLOAD PUSH32 0x8C379A000000000000000000000000000000000000000000000000000000000 DUP2 MSTORE PUSH1 0x4 ADD PUSH2 0x6BE SWAP1 PUSH2 0xF85 JUMP JUMPDEST PUSH1 0x40 MLOAD DUP1 SWAP2 SUB SWAP1 REVERT JUMPDEST PUSH1 0x1 PUSH1 0x0 DUP2 SLOAD DUP1 SWAP3 SWAP2 SWAP1 PUSH2 0x6DA SWAP1 PUSH2 0xFA5 JUMP JUMPDEST SWAP2 SWAP1 POP SSTORE POP DUP3 PUSH20 0xFFFFFFFFFFFFFFFFFFFFFFFFFFFFFFFFFFFFFFFF AND PUSH4 0x23B872DD CALLER ADDRESS DUP6 PUSH1 0x40 MLOAD DUP5 PUSH4 0xFFFFFFFF AND PUSH1 0xE0 SHL DUP2 MSTORE PUSH1 0x4 ADD PUSH2 0x71C SWAP4 SWAP3 SWAP2 SWAP1 PUSH2 0xECB JUMP JUMPDEST PUSH1 0x0 PUSH1 0x40 MLOAD DUP1 DUP4 SUB DUP2 PUSH1 0x0 DUP8 DUP1 EXTCODESIZE ISZERO DUP1 ISZERO PUSH2 0x736 JUMPI PUSH1 0x0 DUP1 REVERT JUMPDEST POP GAS CALL ISZERO DUP1 ISZERO PUSH2 0x74A JUMPI RETURNDATASIZE PUSH1 0x0 DUP1 RETURNDATACOPY RETURNDATASIZE PUSH1 0x0 REVERT JUMPDEST POP POP POP POP PUSH1 0x40 MLOAD DUP1 PUSH1 0xC0 ADD PUSH1 0x40 MSTORE DUP1 PUSH1 0x1 SLOAD DUP2 MSTORE PUSH1 0x20 ADD DUP5 PUSH20 0xFFFFFFFFFFFFFFFFFFFFFFFFFFFFFFFFFFFFFFFF AND DUP2 MSTORE PUSH1 0x20 ADD DUP4 DUP2 MSTORE PUSH1 0x20 ADD DUP3 DUP2 MSTORE PUSH1 0x20 ADD CALLER PUSH20 0xFFFFFFFFFFFFFFFFFFFFFFFFFFFFFFFFFFFFFFFF AND DUP2 MSTORE PUSH1 0x20 ADD PUSH1 0x0 ISZERO ISZERO DUP2 MSTORE POP PUSH1 0x2 PUSH1 0x0 PUSH1 0x1 SLOAD DUP2 MSTORE PUSH1 0x20 ADD SWAP1 DUP2 MSTORE PUSH1 0x20 ADD PUSH1 0x0 KECCAK256 PUSH1 0x0 DUP3 ADD MLOAD DUP2 PUSH1 0x0 ADD SSTORE PUSH1 0x20 DUP3 ADD MLOAD DUP2 PUSH1 0x1 ADD PUSH1 0x0 PUSH2 0x100 EXP DUP2 SLOAD DUP2 PUSH20 0xFFFFFFFFFFFFFFFFFFFFFFFFFFFFFFFFFFFFFFFF MUL NOT AND SWAP1 DUP4 PUSH20 0xFFFFFFFFFFFFFFFFFFFFFFFFFFFFFFFFFFFFFFFF AND MUL OR SWAP1 SSTORE POP PUSH1 0x40 DUP3 ADD MLOAD DUP2 PUSH1 0x2 ADD SSTORE PUSH1 0x60 DUP3 ADD MLOAD DUP2 PUSH1 0x3 ADD SSTORE PUSH1 0x80 DUP3 ADD MLOAD DUP2 PUSH1 0x4 ADD PUSH1 0x0 PUSH2 0x100 EXP DUP2 SLOAD DUP2 PUSH20 0xFFFFFFFFFFFFFFFFFFFFFFFFFFFFFFFFFFFFFFFF MUL NOT AND SWAP1 DUP4 PUSH20 0xFFFFFFFFFFFFFFFFFFFFFFFFFFFFFFFFFFFFFFFF AND MUL OR SWAP1 SSTORE POP PUSH1 0xA0 DUP3 ADD MLOAD DUP2 PUSH1 0x4 ADD PUSH1 0x14 PUSH2 0x100 EXP DUP2 SLOAD DUP2 PUSH1 0xFF MUL NOT AND SWAP1 DUP4 ISZERO ISZERO MUL OR SWAP1 SSTORE POP SWAP1 POP POP CALLER PUSH20 0xFFFFFFFFFFFFFFFFFFFFFFFFFFFFFFFFFFFFFFFF AND DUP4 PUSH20 0xFFFFFFFFFFFFFFFFFFFFFFFFFFFFFFFFFFFFFFFF AND PUSH32 0xDBAC4BB85B8F64732592B4091517366A78DCF20EF7BBAD3443EB8BCDA4BD9D3D PUSH1 0x1 SLOAD DUP6 DUP6 PUSH1 0x40 MLOAD PUSH2 0x8F3 SWAP4 SWAP3 SWAP2 SWAP1 PUSH2 0xF02 JUMP JUMPDEST PUSH1 0x40 MLOAD DUP1 SWAP2 SUB SWAP1 LOG3 PUSH2 0x903 PUSH2 0x958 JUMP JUMPDEST POP POP POP JUMP JUMPDEST PUSH1 0x2 PUSH1 0x0 SLOAD EQ ISZERO PUSH2 0x94E JUMPI PUSH1 0x40 MLOAD PUSH32 0x8C379A000000000000000000000000000000000000000000000000000000000 DUP2 MSTORE PUSH1 0x4 ADD PUSH2 0x945 SWAP1 PUSH2 0x103A JUMP JUMPDEST PUSH1 0x40 MLOAD DUP1 SWAP2 SUB SWAP1 REVERT JUMPDEST PUSH1 0x2 PUSH1 0x0 DUP2 SWAP1 SSTORE POP JUMP JUMPDEST PUSH1 0x1 PUSH1 0x0 DUP2 SWAP1 SSTORE POP JUMP JUMPDEST PUSH1 0x0 PUSH20 0xFFFFFFFFFFFFFFFFFFFFFFFFFFFFFFFFFFFFFFFF DUP3 AND SWAP1 POP SWAP2 SWAP1 POP JUMP JUMPDEST PUSH1 0x0 PUSH2 0x98D DUP3 PUSH2 0x962 JUMP JUMPDEST SWAP1 POP SWAP2 SWAP1 POP JUMP JUMPDEST PUSH2 0x99D DUP2 PUSH2 0x982 JUMP JUMPDEST DUP3 MSTORE POP POP JUMP JUMPDEST PUSH1 0x0 PUSH1 0x20 DUP3 ADD SWAP1 POP PUSH2 0x9B8 PUSH1 0x0 DUP4 ADD DUP5 PUSH2 0x994 JUMP JUMPDEST SWAP3 SWAP2 POP POP JUMP JUMPDEST PUSH1 0x0 DUP2 SWAP1 POP SWAP2 SWAP1 POP JUMP JUMPDEST PUSH2 0x9D1 DUP2 PUSH2 0x9BE JUMP JUMPDEST DUP3 MSTORE POP POP JUMP JUMPDEST PUSH1 0x0 PUSH1 0x20 DUP3 ADD SWAP1 POP PUSH2 0x9EC PUSH1 0x0 DUP4 ADD DUP5 PUSH2 0x9C8 JUMP JUMPDEST SWAP3 SWAP2 POP POP JUMP JUMPDEST PUSH1 0x0 DUP1 REVERT JUMPDEST PUSH2 0xA00 DUP2 PUSH2 0x9BE JUMP JUMPDEST DUP2 EQ PUSH2 0xA0B JUMPI PUSH1 0x0 DUP1 REVERT JUMPDEST POP JUMP JUMPDEST PUSH1 0x0 DUP2 CALLDATALOAD SWAP1 POP PUSH2 0xA1D DUP2 PUSH2 0x9F7 JUMP JUMPDEST SWAP3 SWAP2 POP POP JUMP JUMPDEST PUSH1 0x0 PUSH1 0x20 DUP3 DUP5 SUB SLT ISZERO PUSH2 0xA39 JUMPI PUSH2 0xA38 PUSH2 0x9F2 JUMP JUMPDEST JUMPDEST PUSH1 0x0 PUSH2 0xA47 DUP5 DUP3 DUP6 ADD PUSH2 0xA0E JUMP JUMPDEST SWAP2 POP POP SWAP3 SWAP2 POP POP JUMP JUMPDEST PUSH1 0x0 DUP2 SWAP1 POP SWAP2 SWAP1 POP JUMP JUMPDEST PUSH1 0x0 PUSH2 0xA75 PUSH2 0xA70 PUSH2 0xA6B DUP5 PUSH2 0x962 JUMP JUMPDEST PUSH2 0xA50 JUMP JUMPDEST PUSH2 0x962 JUMP JUMPDEST SWAP1 POP SWAP2 SWAP1 POP JUMP JUMPDEST PUSH1 0x0 PUSH2 0xA87 DUP3 PUSH2 0xA5A JUMP JUMPDEST SWAP1 POP SWAP2 SWAP1 POP JUMP JUMPDEST PUSH1 0x0 PUSH2 0xA99 DUP3 PUSH2 0xA7C JUMP JUMPDEST SWAP1 POP SWAP2 SWAP1 POP JUMP JUMPDEST PUSH2 0xAA9 DUP2 PUSH2 0xA8E JUMP JUMPDEST DUP3 MSTORE POP POP JUMP JUMPDEST PUSH1 0x0 DUP2 ISZERO ISZERO SWAP1 POP SWAP2 SWAP1 POP JUMP JUMPDEST PUSH2 0xAC4 DUP2 PUSH2 0xAAF JUMP JUMPDEST DUP3 MSTORE POP POP JUMP JUMPDEST PUSH1 0x0 PUSH1 0xC0 DUP3 ADD SWAP1 POP PUSH2 0xADF PUSH1 0x0 DUP4 ADD DUP10 PUSH2 0x9C8 JUMP JUMPDEST PUSH2 0xAEC PUSH1 0x20 DUP4 ADD DUP9 PUSH2 0xAA0 JUMP JUMPDEST PUSH2 0xAF9 PUSH1 0x40 DUP4 ADD DUP8 PUSH2 0x9C8 JUMP JUMPDEST PUSH2 0xB06 PUSH1 0x60 DUP4 ADD DUP7 PUSH2 0x9C8 JUMP JUMPDEST PUSH2 0xB13 PUSH1 0x80 DUP4 ADD DUP6 PUSH2 0x994 JUMP JUMPDEST PUSH2 0xB20 PUSH1 0xA0 DUP4 ADD DUP5 PUSH2 0xABB JUMP JUMPDEST SWAP8 SWAP7 POP POP POP POP POP POP POP JUMP JUMPDEST PUSH1 0x0 PUSH2 0xB36 DUP3 PUSH2 0x962 JUMP JUMPDEST SWAP1 POP SWAP2 SWAP1 POP JUMP JUMPDEST PUSH1 0x0 PUSH2 0xB48 DUP3 PUSH2 0xB2B JUMP JUMPDEST SWAP1 POP SWAP2 SWAP1 POP JUMP JUMPDEST PUSH2 0xB58 DUP2 PUSH2 0xB3D JUMP JUMPDEST DUP2 EQ PUSH2 0xB63 JUMPI PUSH1 0x0 DUP1 REVERT JUMPDEST POP JUMP JUMPDEST PUSH1 0x0 DUP2 CALLDATALOAD SWAP1 POP PUSH2 0xB75 DUP2 PUSH2 0xB4F JUMP JUMPDEST SWAP3 SWAP2 POP POP JUMP JUMPDEST PUSH1 0x0 DUP1 PUSH1 0x0 PUSH1 0x60 DUP5 DUP7 SUB SLT ISZERO PUSH2 0xB94 JUMPI PUSH2 0xB93 PUSH2 0x9F2 JUMP JUMPDEST JUMPDEST PUSH1 0x0 PUSH2 0xBA2 DUP7 DUP3 DUP8 ADD PUSH2 0xB66 JUMP JUMPDEST SWAP4 POP POP PUSH1 0x20 PUSH2 0xBB3 DUP7 DUP3 DUP8 ADD PUSH2 0xA0E JUMP JUMPDEST SWAP3 POP POP PUSH1 0x40 PUSH2 0xBC4 DUP7 DUP3 DUP8 ADD PUSH2 0xA0E JUMP JUMPDEST SWAP2 POP POP SWAP3 POP SWAP3 POP SWAP3 JUMP JUMPDEST PUSH32 0x4E487B7100000000000000000000000000000000000000000000000000000000 PUSH1 0x0 MSTORE PUSH1 0x11 PUSH1 0x4 MSTORE PUSH1 0x24 PUSH1 0x0 REVERT JUMPDEST PUSH1 0x0 PUSH2 0xC08 DUP3 PUSH2 0x9BE JUMP JUMPDEST SWAP2 POP PUSH2 0xC13 DUP4 PUSH2 0x9BE JUMP JUMPDEST SWAP3 POP DUP3 PUSH32 0xFFFFFFFFFFFFFFFFFFFFFFFFFFFFFFFFFFFFFFFFFFFFFFFFFFFFFFFFFFFFFFFF SUB DUP3 GT ISZERO PUSH2 0xC48 JUMPI PUSH2 0xC47 PUSH2 0xBCE JUMP JUMPDEST JUMPDEST DUP3 DUP3 ADD SWAP1 POP SWAP3 SWAP2 POP POP JUMP JUMPDEST PUSH1 0x0 PUSH2 0xC5E DUP3 PUSH2 0x9BE JUMP JUMPDEST SWAP2 POP PUSH2 0xC69 DUP4 PUSH2 0x9BE JUMP JUMPDEST SWAP3 POP DUP2 PUSH32 0xFFFFFFFFFFFFFFFFFFFFFFFFFFFFFFFFFFFFFFFFFFFFFFFFFFFFFFFFFFFFFFFF DIV DUP4 GT DUP3 ISZERO ISZERO AND ISZERO PUSH2 0xCA2 JUMPI PUSH2 0xCA1 PUSH2 0xBCE JUMP JUMPDEST JUMPDEST DUP3 DUP3 MUL SWAP1 POP SWAP3 SWAP2 POP POP JUMP JUMPDEST PUSH32 0x4E487B7100000000000000000000000000000000000000000000000000000000 PUSH1 0x0 MSTORE PUSH1 0x12 PUSH1 0x4 MSTORE PUSH1 0x24 PUSH1 0x0 REVERT JUMPDEST PUSH1 0x0 PUSH2 0xCE7 DUP3 PUSH2 0x9BE JUMP JUMPDEST SWAP2 POP PUSH2 0xCF2 DUP4 PUSH2 0x9BE JUMP JUMPDEST SWAP3 POP DUP3 PUSH2 0xD02 JUMPI PUSH2 0xD01 PUSH2 0xCAD JUMP JUMPDEST JUMPDEST DUP3 DUP3 DIV SWAP1 POP SWAP3 SWAP2 POP POP JUMP JUMPDEST PUSH1 0x0 DUP3 DUP3 MSTORE PUSH1 0x20 DUP3 ADD SWAP1 POP SWAP3 SWAP2 POP POP JUMP JUMPDEST PUSH32 0x4974656D20446F6573204E6F7420457869737400000000000000000000000000 PUSH1 0x0 DUP3 ADD MSTORE POP JUMP JUMPDEST PUSH1 0x0 PUSH2 0xD54 PUSH1 0x13 DUP4 PUSH2 0xD0D JUMP JUMPDEST SWAP2 POP PUSH2 0xD5F DUP3 PUSH2 0xD1E JUMP JUMPDEST PUSH1 0x20 DUP3 ADD SWAP1 POP SWAP2 SWAP1 POP JUMP JUMPDEST PUSH1 0x0 PUSH1 0x20 DUP3 ADD SWAP1 POP DUP2 DUP2 SUB PUSH1 0x0 DUP4 ADD MSTORE PUSH2 0xD83 DUP2 PUSH2 0xD47 JUMP JUMPDEST SWAP1 POP SWAP2 SWAP1 POP JUMP JUMPDEST PUSH32 0x4E6F7420656E6F75676820457468657220746F20707572636861736520697465 PUSH1 0x0 DUP3 ADD MSTORE PUSH32 0x6D20616E64207061792066656500000000000000000000000000000000000000 PUSH1 0x20 DUP3 ADD MSTORE POP JUMP JUMPDEST PUSH1 0x0 PUSH2 0xDE6 PUSH1 0x2D DUP4 PUSH2 0xD0D JUMP JUMPDEST SWAP2 POP PUSH2 0xDF1 DUP3 PUSH2 0xD8A JUMP JUMPDEST PUSH1 0x40 DUP3 ADD SWAP1 POP SWAP2 SWAP1 POP JUMP JUMPDEST PUSH1 0x0 PUSH1 0x20 DUP3 ADD SWAP1 POP DUP2 DUP2 SUB PUSH1 0x0 DUP4 ADD MSTORE PUSH2 0xE15 DUP2 PUSH2 0xDD9 JUMP JUMPDEST SWAP1 POP SWAP2 SWAP1 POP JUMP JUMPDEST PUSH32 0x6974656D20616C726561647920536F6C64000000000000000000000000000000 PUSH1 0x0 DUP3 ADD MSTORE POP JUMP JUMPDEST PUSH1 0x0 PUSH2 0xE52 PUSH1 0x11 DUP4 PUSH2 0xD0D JUMP JUMPDEST SWAP2 POP PUSH2 0xE5D DUP3 PUSH2 0xE1C JUMP JUMPDEST PUSH1 0x20 DUP3 ADD SWAP1 POP SWAP2 SWAP1 POP JUMP JUMPDEST PUSH1 0x0 PUSH1 0x20 DUP3 ADD SWAP1 POP DUP2 DUP2 SUB PUSH1 0x0 DUP4 ADD MSTORE PUSH2 0xE81 DUP2 PUSH2 0xE45 JUMP JUMPDEST SWAP1 POP SWAP2 SWAP1 POP JUMP JUMPDEST PUSH1 0x0 PUSH2 0xE93 DUP3 PUSH2 0x9BE JUMP JUMPDEST SWAP2 POP PUSH2 0xE9E DUP4 PUSH2 0x9BE JUMP JUMPDEST SWAP3 POP DUP3 DUP3 LT ISZERO PUSH2 0xEB1 JUMPI PUSH2 0xEB0 PUSH2 0xBCE JUMP JUMPDEST JUMPDEST DUP3 DUP3 SUB SWAP1 POP SWAP3 SWAP2 POP POP JUMP JUMPDEST PUSH2 0xEC5 DUP2 PUSH2 0xB2B JUMP JUMPDEST DUP3 MSTORE POP POP JUMP JUMPDEST PUSH1 0x0 PUSH1 0x60 DUP3 ADD SWAP1 POP PUSH2 0xEE0 PUSH1 0x0 DUP4 ADD DUP7 PUSH2 0xEBC JUMP JUMPDEST PUSH2 0xEED PUSH1 0x20 DUP4 ADD DUP6 PUSH2 0xEBC JUMP JUMPDEST PUSH2 0xEFA PUSH1 0x40 DUP4 ADD DUP5 PUSH2 0x9C8 JUMP JUMPDEST SWAP5 SWAP4 POP POP POP POP JUMP JUMPDEST PUSH1 0x0 PUSH1 0x60 DUP3 ADD SWAP1 POP PUSH2 0xF17 PUSH1 0x0 DUP4 ADD DUP7 PUSH2 0x9C8 JUMP JUMPDEST PUSH2 0xF24 PUSH1 0x20 DUP4 ADD DUP6 PUSH2 0x9C8 JUMP JUMPDEST PUSH2 0xF31 PUSH1 0x40 DUP4 ADD DUP5 PUSH2 0x9C8 JUMP JUMPDEST SWAP5 SWAP4 POP POP POP POP JUMP JUMPDEST PUSH32 0x7072696365206D7573742062652067726561746572207468656E207A65726F00 PUSH1 0x0 DUP3 ADD MSTORE POP JUMP JUMPDEST PUSH1 0x0 PUSH2 0xF6F PUSH1 0x1F DUP4 PUSH2 0xD0D JUMP JUMPDEST SWAP2 POP PUSH2 0xF7A DUP3 PUSH2 0xF39 JUMP JUMPDEST PUSH1 0x20 DUP3 ADD SWAP1 POP SWAP2 SWAP1 POP JUMP JUMPDEST PUSH1 0x0 PUSH1 0x20 DUP3 ADD SWAP1 POP DUP2 DUP2 SUB PUSH1 0x0 DUP4 ADD MSTORE PUSH2 0xF9E DUP2 PUSH2 0xF62 JUMP JUMPDEST SWAP1 POP SWAP2 SWAP1 POP JUMP JUMPDEST PUSH1 0x0 PUSH2 0xFB0 DUP3 PUSH2 0x9BE JUMP JUMPDEST SWAP2 POP PUSH32 0xFFFFFFFFFFFFFFFFFFFFFFFFFFFFFFFFFFFFFFFFFFFFFFFFFFFFFFFFFFFFFFFF DUP3 EQ ISZERO PUSH2 0xFE3 JUMPI PUSH2 0xFE2 PUSH2 0xBCE JUMP JUMPDEST JUMPDEST PUSH1 0x1 DUP3 ADD SWAP1 POP SWAP2 SWAP1 POP JUMP JUMPDEST PUSH32 0x5265656E7472616E637947756172643A207265656E7472616E742063616C6C00 PUSH1 0x0 DUP3 ADD MSTORE POP JUMP JUMPDEST PUSH1 0x0 PUSH2 0x1024 PUSH1 0x1F DUP4 PUSH2 0xD0D JUMP JUMPDEST SWAP2 POP PUSH2 0x102F DUP3 PUSH2 0xFEE JUMP JUMPDEST PUSH1 0x20 DUP3 ADD SWAP1 POP SWAP2 SWAP1 POP JUMP JUMPDEST PUSH1 0x0 PUSH1 0x20 DUP3 ADD SWAP1 POP DUP2 DUP2 SUB PUSH1 0x0 DUP4 ADD MSTORE PUSH2 0x1053 DUP2 PUSH2 0x1017 JUMP JUMPDEST SWAP1 POP SWAP2 SWAP1 POP JUMP INVALID LOG2 PUSH5 0x6970667358 0x22 SLT KECCAK256 SIGNEXTEND 0xE9 PUSH9 0x595FDB520208EB0661 PUSH28 0x6751D6BA4233A903D0E6BA9EDDABF99D78611E64736F6C6343000809 STOP CALLER "},"methodIdentifiers":{"feeAccount()":"65e17c9d","feePercent()":"7fd6f15c","getTotalPrice(uint256)":"ca7dd375","itemCount()":"6bfb0d01","items(uint256)":"bfb231d2","makeItem(address,uint256,uint256)":"fa00afc7","purchaseItem(uint256)":"d38ea5bf"}}}}}