{
  "_format": "hh-sol-artifact-1",
  "contractName": "Marketplace",
  "sourceName": "contracts/Marketplace.sol",
  "abi": [
    {
      "inputs": [
        {
          "internalType": "uint256",
          "name": "_feePercent",
          "type": "uint256"
        }
      ],
      "stateMutability": "nonpayable",
      "type": "constructor"
    },
    {
      "anonymous": false,
      "inputs": [
        {
          "indexed": false,
          "internalType": "uint256",
          "name": "itemId",
          "type": "uint256"
        },
        {
          "indexed": true,
          "internalType": "address",
          "name": "nft",
          "type": "address"
        },
        {
          "indexed": false,
          "internalType": "uint256",
          "name": "tokenId",
          "type": "uint256"
        },
        {
          "indexed": false,
          "internalType": "uint256",
          "name": "price",
          "type": "uint256"
        },
        {
          "indexed": true,
          "internalType": "address",
          "name": "seller",
          "type": "address"
        },
        {
          "indexed": true,
          "internalType": "address",
          "name": "buyer",
          "type": "address"
        }
      ],
      "name": "Bought",
      "type": "event"
    },
    {
      "anonymous": false,
      "inputs": [
        {
          "indexed": false,
          "internalType": "uint256",
          "name": "itemId",
          "type": "uint256"
        },
        {
          "indexed": true,
          "internalType": "address",
          "name": "nft",
          "type": "address"
        },
        {
          "indexed": false,
          "internalType": "uint256",
          "name": "tokenId",
          "type": "uint256"
        },
        {
          "indexed": false,
          "internalType": "uint256",
          "name": "price",
          "type": "uint256"
        },
        {
          "indexed": true,
          "internalType": "address",
          "name": "seller",
          "type": "address"
        }
      ],
      "name": "offered",
      "type": "event"
    },
    {
      "inputs": [],
      "name": "feeAccount",
      "outputs": [
        {
          "internalType": "address payable",
          "name": "",
          "type": "address"
        }
      ],
      "stateMutability": "view",
      "type": "function"
    },
    {
      "inputs": [],
      "name": "feePercent",
      "outputs": [
        {
          "internalType": "uint256",
          "name": "",
          "type": "uint256"
        }
      ],
      "stateMutability": "view",
      "type": "function"
    },
    {
      "inputs": [
        {
          "internalType": "uint256",
          "name": "itemId",
          "type": "uint256"
        }
      ],
      "name": "getTotalPrice",
      "outputs": [
        {
          "internalType": "uint256",
          "name": "",
          "type": "uint256"
        }
      ],
      "stateMutability": "view",
      "type": "function"
    },
    {
      "inputs": [],
      "name": "itemCount",
      "outputs": [
        {
          "internalType": "uint256",
          "name": "",
          "type": "uint256"
        }
      ],
      "stateMutability": "view",
      "type": "function"
    },
    {
      "inputs": [
        {
          "internalType": "uint256",
          "name": "",
          "type": "uint256"
        }
      ],
      "name": "items",
      "outputs": [
        {
          "internalType": "uint256",
          "name": "itemId",
          "type": "uint256"
        },
        {
          "internalType": "contract IERC721",
          "name": "nft",
          "type": "address"
        },
        {
          "internalType": "uint256",
          "name": "tokenId",
          "type": "uint256"
        },
        {
          "internalType": "uint256",
          "name": "price",
          "type": "uint256"
        },
        {
          "internalType": "address payable",
          "name": "seller",
          "type": "address"
        },
        {
          "internalType": "bool",
          "name": "sold",
          "type": "bool"
        }
      ],
      "stateMutability": "view",
      "type": "function"
    },
    {
      "inputs": [
        {
          "internalType": "contract IERC721",
          "name": "_nft",
          "type": "address"
        },
        {
          "internalType": "uint256",
          "name": "_tokenId",
          "type": "uint256"
        },
        {
          "internalType": "uint256",
          "name": "_price",
          "type": "uint256"
        }
      ],
      "name": "makeItem",
      "outputs": [],
      "stateMutability": "nonpayable",
      "type": "function"
    },
    {
      "inputs": [
        {
          "internalType": "uint256",
          "name": "_itemId",
          "type": "uint256"
        }
      ],
      "name": "purchaseItem",
      "outputs": [],
      "stateMutability": "payable",
      "type": "function"
    },
    {
      "inputs": [
        {
          "internalType": "uint256",
          "name": "_itemId",
          "type": "uint256"
        },
        {
          "internalType": "uint256",
          "name": "_price",
          "type": "uint256"
        }
      ],
      "name": "sellItem",
      "outputs": [],
      "stateMutability": "nonpayable",
      "type": "function"
    }
  ],
  "bytecode": "0x60c06040523480156200001157600080fd5b50604051620014cb380380620014cb8339818101604052810190620000379190620000c2565b60016000819055503373ffffffffffffffffffffffffffffffffffffffff1660808173ffffffffffffffffffffffffffffffffffffffff16815250508060a0818152505050620000f4565b600080fd5b6000819050919050565b6200009c8162000087565b8114620000a857600080fd5b50565b600081519050620000bc8162000091565b92915050565b600060208284031215620000db57620000da62000082565b5b6000620000eb84828501620000ab565b91505092915050565b60805160a0516113a362000128600039600081816103e101526104920152600081816103b7015261067201526113a36000f3fe60806040526004361061007b5760003560e01c8063bfb231d21161004e578063bfb231d21461012a578063ca7dd3751461016c578063d38ea5bf146101a9578063fa00afc7146101c55761007b565b80632d9235611461008057806365e17c9d146100a95780636bfb0d01146100d45780637fd6f15c146100ff575b600080fd5b34801561008c57600080fd5b506100a760048036038101906100a29190610b98565b6101ee565b005b3480156100b557600080fd5b506100be6103b5565b6040516100cb9190610c19565b60405180910390f35b3480156100e057600080fd5b506100e96103d9565b6040516100f69190610c43565b60405180910390f35b34801561010b57600080fd5b506101146103df565b6040516101219190610c43565b60405180910390f35b34801561013657600080fd5b50610151600480360381019061014c9190610c5e565b610403565b60405161016396959493929190610d05565b60405180910390f35b34801561017857600080fd5b50610193600480360381019061018e9190610c5e565b61048c565b6040516101a09190610c43565b60405180910390f35b6101c360048036038101906101be9190610c5e565b6104ef565b005b3480156101d157600080fd5b506101ec60048036038101906101e79190610db6565b610877565b005b6101f6610b03565b6000600260008481526020019081526020016000209050600115158160040160149054906101000a900460ff16151514610265576040517f08c379a000000000000000000000000000000000000000000000000000000000815260040161025c90610e66565b60405180910390fd5b600082116102a8576040517f08c379a000000000000000000000000000000000000000000000000000000000815260040161029f90610ed2565b60405180910390fd5b8060010160009054906101000a900473ffffffffffffffffffffffffffffffffffffffff1673ffffffffffffffffffffffffffffffffffffffff166323b872dd333084600201546040518463ffffffff1660e01b815260040161030d93929190610f01565b600060405180830381600087803b15801561032757600080fd5b505af115801561033b573d6000803e3d6000fd5b5050505060008160040160146101000a81548160ff021916908315150217905550338160040160006101000a81548173ffffffffffffffffffffffffffffffffffffffff021916908373ffffffffffffffffffffffffffffffffffffffff160217905550818160030181905550506103b1610b53565b5050565b7f000000000000000000000000000000000000000000000000000000000000000081565b60015481565b7f000000000000000000000000000000000000000000000000000000000000000081565b60026020528060005260406000206000915090508060000154908060010160009054906101000a900473ffffffffffffffffffffffffffffffffffffffff16908060020154908060030154908060040160009054906101000a900473ffffffffffffffffffffffffffffffffffffffff16908060040160149054906101000a900460ff16905086565b600060647f000000000000000000000000000000000000000000000000000000000000000060646104bd9190610f67565b60026000858152602001908152602001600020600301546104de9190610fbd565b6104e89190611046565b9050919050565b6104f7610b03565b60006105028261048c565b9050600060026000848152602001908152602001600020905060008311801561052d57506001548311155b61056c576040517f08c379a0000000000000000000000000000000000000000000000000000000008152600401610563906110c3565b60405180910390fd5b813410156105af576040517f08c379a00000000000000000000000000000000000000000000000000000000081526004016105a690611155565b60405180910390fd5b8060040160149054906101000a900460ff1615610601576040517f08c379a00000000000000000000000000000000000000000000000000000000081526004016105f8906111c1565b60405180910390fd5b8060040160009054906101000a900473ffffffffffffffffffffffffffffffffffffffff1673ffffffffffffffffffffffffffffffffffffffff166108fc82600301549081150290604051600060405180830381858888f1935050505015801561066f573d6000803e3d6000fd5b507f000000000000000000000000000000000000000000000000000000000000000073ffffffffffffffffffffffffffffffffffffffff166108fc8260030154846106ba91906111e1565b9081150290604051600060405180830381858888f193505050501580156106e5573d6000803e3d6000fd5b5060018160040160146101000a81548160ff0219169083151502179055508060010160009054906101000a900473ffffffffffffffffffffffffffffffffffffffff1673ffffffffffffffffffffffffffffffffffffffff166323b872dd303384600201546040518463ffffffff1660e01b815260040161076893929190610f01565b600060405180830381600087803b15801561078257600080fd5b505af1158015610796573d6000803e3d6000fd5b505050503373ffffffffffffffffffffffffffffffffffffffff168160040160009054906101000a900473ffffffffffffffffffffffffffffffffffffffff1673ffffffffffffffffffffffffffffffffffffffff168260010160009054906101000a900473ffffffffffffffffffffffffffffffffffffffff1673ffffffffffffffffffffffffffffffffffffffff167f8b4c9c8a607d67b321582dd8461041b1dc2ceeca70c8b7f37f8e02095cf2e76d868560020154866003015460405161086293929190611215565b60405180910390a45050610874610b53565b50565b61087f610b03565b600081116108c2576040517f08c379a00000000000000000000000000000000000000000000000000000000081526004016108b990611298565b60405180910390fd5b600160008154809291906108d5906112b8565b91905055508273ffffffffffffffffffffffffffffffffffffffff166323b872dd3330856040518463ffffffff1660e01b815260040161091793929190610f01565b600060405180830381600087803b15801561093157600080fd5b505af1158015610945573d6000803e3d6000fd5b505050506040518060c0016040528060015481526020018473ffffffffffffffffffffffffffffffffffffffff1681526020018381526020018281526020013373ffffffffffffffffffffffffffffffffffffffff168152602001600015158152506002600060015481526020019081526020016000206000820151816000015560208201518160010160006101000a81548173ffffffffffffffffffffffffffffffffffffffff021916908373ffffffffffffffffffffffffffffffffffffffff160217905550604082015181600201556060820151816003015560808201518160040160006101000a81548173ffffffffffffffffffffffffffffffffffffffff021916908373ffffffffffffffffffffffffffffffffffffffff16021790555060a08201518160040160146101000a81548160ff0219169083151502179055509050503373ffffffffffffffffffffffffffffffffffffffff168373ffffffffffffffffffffffffffffffffffffffff167fdbac4bb85b8f64732592b4091517366a78dcf20ef7bbad3443eb8bcda4bd9d3d6001548585604051610aee93929190611215565b60405180910390a3610afe610b53565b505050565b60026000541415610b49576040517f08c379a0000000000000000000000000000000000000000000000000000000008152600401610b409061134d565b60405180910390fd5b6002600081905550565b6001600081905550565b600080fd5b6000819050919050565b610b7581610b62565b8114610b8057600080fd5b50565b600081359050610b9281610b6c565b92915050565b60008060408385031215610baf57610bae610b5d565b5b6000610bbd85828601610b83565b9250506020610bce85828601610b83565b9150509250929050565b600073ffffffffffffffffffffffffffffffffffffffff82169050919050565b6000610c0382610bd8565b9050919050565b610c1381610bf8565b82525050565b6000602082019050610c2e6000830184610c0a565b92915050565b610c3d81610b62565b82525050565b6000602082019050610c586000830184610c34565b92915050565b600060208284031215610c7457610c73610b5d565b5b6000610c8284828501610b83565b91505092915050565b6000819050919050565b6000610cb0610cab610ca684610bd8565b610c8b565b610bd8565b9050919050565b6000610cc282610c95565b9050919050565b6000610cd482610cb7565b9050919050565b610ce481610cc9565b82525050565b60008115159050919050565b610cff81610cea565b82525050565b600060c082019050610d1a6000830189610c34565b610d276020830188610cdb565b610d346040830187610c34565b610d416060830186610c34565b610d4e6080830185610c0a565b610d5b60a0830184610cf6565b979650505050505050565b6000610d7182610bd8565b9050919050565b6000610d8382610d66565b9050919050565b610d9381610d78565b8114610d9e57600080fd5b50565b600081359050610db081610d8a565b92915050565b600080600060608486031215610dcf57610dce610b5d565b5b6000610ddd86828701610da1565b9350506020610dee86828701610b83565b9250506040610dff86828701610b83565b9150509250925092565b600082825260208201905092915050565b7f4974656d20697320616c7265616479206f6e2053616c65000000000000000000600082015250565b6000610e50601783610e09565b9150610e5b82610e1a565b602082019050919050565b60006020820190508181036000830152610e7f81610e43565b9050919050565b7f5069726365206d7573742062652067726561746572207468656e207a65726f00600082015250565b6000610ebc601f83610e09565b9150610ec782610e86565b602082019050919050565b60006020820190508181036000830152610eeb81610eaf565b9050919050565b610efb81610d66565b82525050565b6000606082019050610f166000830186610ef2565b610f236020830185610ef2565b610f306040830184610c34565b949350505050565b7f4e487b7100000000000000000000000000000000000000000000000000000000600052601160045260246000fd5b6000610f7282610b62565b9150610f7d83610b62565b9250827fffffffffffffffffffffffffffffffffffffffffffffffffffffffffffffffff03821115610fb257610fb1610f38565b5b828201905092915050565b6000610fc882610b62565b9150610fd383610b62565b9250817fffffffffffffffffffffffffffffffffffffffffffffffffffffffffffffffff048311821515161561100c5761100b610f38565b5b828202905092915050565b7f4e487b7100000000000000000000000000000000000000000000000000000000600052601260045260246000fd5b600061105182610b62565b915061105c83610b62565b92508261106c5761106b611017565b5b828204905092915050565b7f4974656d20446f6573204e6f7420457869737400000000000000000000000000600082015250565b60006110ad601383610e09565b91506110b882611077565b602082019050919050565b600060208201905081810360008301526110dc816110a0565b9050919050565b7f4e6f7420656e6f75676820457468657220746f2070757263686173652069746560008201527f6d20616e64207061792066656500000000000000000000000000000000000000602082015250565b600061113f602d83610e09565b915061114a826110e3565b604082019050919050565b6000602082019050818103600083015261116e81611132565b9050919050565b7f6974656d20616c726561647920536f6c64000000000000000000000000000000600082015250565b60006111ab601183610e09565b91506111b682611175565b602082019050919050565b600060208201905081810360008301526111da8161119e565b9050919050565b60006111ec82610b62565b91506111f783610b62565b92508282101561120a57611209610f38565b5b828203905092915050565b600060608201905061122a6000830186610c34565b6112376020830185610c34565b6112446040830184610c34565b949350505050565b7f7072696365206d7573742062652067726561746572207468656e207a65726f00600082015250565b6000611282601f83610e09565b915061128d8261124c565b602082019050919050565b600060208201905081810360008301526112b181611275565b9050919050565b60006112c382610b62565b91507fffffffffffffffffffffffffffffffffffffffffffffffffffffffffffffffff8214156112f6576112f5610f38565b5b600182019050919050565b7f5265656e7472616e637947756172643a207265656e7472616e742063616c6c00600082015250565b6000611337601f83610e09565b915061134282611301565b602082019050919050565b600060208201905081810360008301526113668161132a565b905091905056fea264697066735822122044e0fd6260622cd29fe90297ccac0ed114d1a597cacdeb5651bc8d09d329513164736f6c63430008090033",
  "linkReferences": {},
  "deployedLinkReferences": {}
}